{
  "_format": "hh-sol-artifact-1",
  "contractName": "Voting",
  "sourceName": "contracts/Voting.sol",
  "abi": [
    {
      "anonymous": false,
      "inputs": [
        {
          "indexed": true,
          "internalType": "uint256",
          "name": "electionId",
          "type": "uint256"
        },
        {
          "indexed": false,
          "internalType": "uint256",
          "name": "candidateId",
          "type": "uint256"
        },
        {
          "indexed": false,
          "internalType": "string",
          "name": "name",
          "type": "string"
        }
      ],
      "name": "CandidateAdded",
      "type": "event"
    },
    {
      "anonymous": false,
      "inputs": [
        {
          "indexed": true,
          "internalType": "uint256",
          "name": "electionId",
          "type": "uint256"
        },
        {
          "indexed": false,
          "internalType": "string",
          "name": "title",
          "type": "string"
        }
      ],
      "name": "ElectionCreated",
      "type": "event"
    },
    {
      "anonymous": false,
      "inputs": [
        {
          "indexed": true,
          "internalType": "uint256",
          "name": "electionId",
          "type": "uint256"
        },
        {
          "indexed": false,
          "internalType": "uint256",
          "name": "candidateId",
          "type": "uint256"
        },
        {
          "indexed": false,
          "internalType": "address",
          "name": "voter",
          "type": "address"
        }
      ],
      "name": "VoteCast",
      "type": "event"
    },
    {
      "inputs": [
        {
          "internalType": "uint256",
          "name": "electionId",
          "type": "uint256"
        },
        {
          "internalType": "string",
          "name": "name",
          "type": "string"
        },
        {
          "internalType": "string",
          "name": "party",
          "type": "string"
        },
        {
          "internalType": "string",
          "name": "manifesto",
          "type": "string"
        },
        {
          "internalType": "string",
          "name": "image",
          "type": "string"
        }
      ],
      "name": "addCandidate",
      "outputs": [
        {
          "internalType": "uint256",
          "name": "",
          "type": "uint256"
        }
      ],
      "stateMutability": "nonpayable",
      "type": "function"
    },
    {
      "inputs": [
        {
          "internalType": "uint256",
          "name": "",
          "type": "uint256"
        }
      ],
      "name": "candidateCount",
      "outputs": [
        {
          "internalType": "uint256",
          "name": "",
          "type": "uint256"
        }
      ],
      "stateMutability": "view",
      "type": "function"
    },
    {
      "inputs": [
        {
          "internalType": "uint256",
          "name": "",
          "type": "uint256"
        },
        {
          "internalType": "uint256",
          "name": "",
          "type": "uint256"
        }
      ],
      "name": "candidates",
      "outputs": [
        {
          "internalType": "string",
          "name": "name",
          "type": "string"
        },
        {
          "internalType": "string",
          "name": "party",
          "type": "string"
        },
        {
          "internalType": "string",
          "name": "manifesto",
          "type": "string"
        },
        {
          "internalType": "string",
          "name": "image",
          "type": "string"
        },
        {
          "internalType": "uint256",
          "name": "voteCount",
          "type": "uint256"
        },
        {
          "internalType": "bool",
          "name": "exists",
          "type": "bool"
        }
      ],
      "stateMutability": "view",
      "type": "function"
    },
    {
      "inputs": [
        {
          "internalType": "string",
          "name": "title",
          "type": "string"
        },
        {
          "internalType": "string",
          "name": "description",
          "type": "string"
        },
        {
          "internalType": "uint256",
          "name": "startDate",
          "type": "uint256"
        },
        {
          "internalType": "uint256",
          "name": "endDate",
          "type": "uint256"
        }
      ],
      "name": "createElection",
      "outputs": [
        {
          "internalType": "uint256",
          "name": "",
          "type": "uint256"
        }
      ],
      "stateMutability": "nonpayable",
      "type": "function"
    },
    {
      "inputs": [],
      "name": "electionCount",
      "outputs": [
        {
          "internalType": "uint256",
          "name": "",
          "type": "uint256"
        }
      ],
      "stateMutability": "view",
      "type": "function"
    },
    {
      "inputs": [
        {
          "internalType": "uint256",
          "name": "",
          "type": "uint256"
        }
      ],
      "name": "elections",
      "outputs": [
        {
          "internalType": "string",
          "name": "title",
          "type": "string"
        },
        {
          "internalType": "string",
          "name": "description",
          "type": "string"
        },
        {
          "internalType": "uint256",
          "name": "startDate",
          "type": "uint256"
        },
        {
          "internalType": "uint256",
          "name": "endDate",
          "type": "uint256"
        },
        {
          "internalType": "bool",
          "name": "exists",
          "type": "bool"
        }
      ],
      "stateMutability": "view",
      "type": "function"
    },
    {
      "inputs": [
        {
          "internalType": "uint256",
          "name": "electionId",
          "type": "uint256"
        }
      ],
      "name": "getResults",
      "outputs": [
        {
          "internalType": "uint256[]",
          "name": "",
          "type": "uint256[]"
        }
      ],
      "stateMutability": "view",
      "type": "function"
    },
    {
      "inputs": [
        {
          "internalType": "uint256",
          "name": "electionId",
          "type": "uint256"
        },
        {
          "internalType": "address",
          "name": "voter",
          "type": "address"
        }
      ],
      "name": "hasVoted",
      "outputs": [
        {
          "internalType": "bool",
          "name": "",
          "type": "bool"
        }
      ],
      "stateMutability": "view",
      "type": "function"
    },
    {
      "inputs": [
        {
          "internalType": "uint256",
          "name": "electionId",
          "type": "uint256"
        },
        {
          "internalType": "uint256",
          "name": "candidateId",
          "type": "uint256"
        }
      ],
      "name": "vote",
      "outputs": [],
      "stateMutability": "nonpayable",
      "type": "function"
    },
    {
      "inputs": [
        {
          "internalType": "uint256",
          "name": "",
          "type": "uint256"
        },
        {
          "internalType": "address",
          "name": "",
          "type": "address"
        }
      ],
      "name": "voters",
      "outputs": [
        {
          "internalType": "bool",
          "name": "voted",
          "type": "bool"
        },
        {
          "internalType": "uint256",
          "name": "votedCandidate",
          "type": "uint256"
        },
        {
          "internalType": "bool",
          "name": "exists",
          "type": "bool"
        }
      ],
      "stateMutability": "view",
      "type": "function"
    }
  ],
  "bytecode": "0x608060405234801561001057600080fd5b5061108b806100206000396000f3fe608060405234801561001057600080fd5b506004361061009e5760003560e01c806381a60c0d1161006657806381a60c0d14610148578063997d2830146101685780639e31906314610171578063b1ff97c1146101cf578063b384abef146101ef57600080fd5b8063119aeab7146100a357806343859632146100c95780635e6fef01146100ec5780637ad36e84146101105780637de1424214610123575b600080fd5b6100b66100b1366004610b69565b610204565b6040519081526020015b60405180910390f35b6100dc6100d7366004610c20565b610365565b60405190151581526020016100c0565b6100ff6100fa366004610c5c565b610392565b6040516100c0959493929190610cbb565b6100b661011e366004610d00565b6104d5565b610136610131366004610d74565b6105b9565b6040516100c096959493929190610d96565b61015b610156366004610c5c565b61081c565b6040516100c09190610dfe565b6100b660005481565b6101b061017f366004610c20565b600460209081526000928352604080842090915290825290208054600182015460029092015460ff91821692911683565b60408051931515845260208401929092521515908201526060016100c0565b6100b66101dd366004610c5c565b60036020526000908152604090205481565b6102026101fd366004610d74565b61090d565b005b60008581526001602052604081206004015460ff1661023e5760405162461bcd60e51b815260040161023590610e42565b60405180910390fd5b600086815260036020526040812080549161025883610e8f565b9091555050600086815260036020908152604080832054815160c0810183528981528084018990528083018890526060810187905260808101859052600160a08201528a8552600284528285208286529093529220815181906102bb9082610f31565b50602082015160018201906102d09082610f31565b50604082015160028201906102e59082610f31565b50606082015160038201906102fa9082610f31565b506080820151600482015560a0909101516005909101805460ff191691151591909117905560405187907fed8911b3df733b7d5f75724158e54478ea12e30f49c9d31b5261879f5b76586f906103539084908a90610ff1565b60405180910390a29695505050505050565b60008281526004602090815260408083206001600160a01b038516845290915290205460ff165b92915050565b6001602052600090815260409020805481906103ad90610ea8565b80601f01602080910402602001604051908101604052809291908181526020018280546103d990610ea8565b80156104265780601f106103fb57610100808354040283529160200191610426565b820191906000526020600020905b81548152906001019060200180831161040957829003601f168201915b50505050509080600101805461043b90610ea8565b80601f016020809104026020016040519081016040528092919081815260200182805461046790610ea8565b80156104b45780601f10610489576101008083540402835291602001916104b4565b820191906000526020600020905b81548152906001019060200180831161049757829003601f168201915b50505050600283015460038401546004909401549293909290915060ff1685565b6000805481806104e483610e8f565b90915550506040805160a0810182528681526020808201879052818301869052606082018590526001608083018190526000805481529152919091208151819061052e9082610f31565b50602082015160018201906105439082610f31565b506040828101516002830155606083015160038301556080909201516004909101805460ff191691151591909117905560005490517f52be7c4e77b4de76b7607d621492061fe13b58597e72dfb5e51ab8f6187ed141906105a5908890611012565b60405180910390a250600054949350505050565b60026020908152600092835260408084209091529082529020805481906105df90610ea8565b80601f016020809104026020016040519081016040528092919081815260200182805461060b90610ea8565b80156106585780601f1061062d57610100808354040283529160200191610658565b820191906000526020600020905b81548152906001019060200180831161063b57829003601f168201915b50505050509080600101805461066d90610ea8565b80601f016020809104026020016040519081016040528092919081815260200182805461069990610ea8565b80156106e65780601f106106bb576101008083540402835291602001916106e6565b820191906000526020600020905b8154815290600101906020018083116106c957829003601f168201915b5050505050908060020180546106fb90610ea8565b80601f016020809104026020016040519081016040528092919081815260200182805461072790610ea8565b80156107745780601f1061074957610100808354040283529160200191610774565b820191906000526020600020905b81548152906001019060200180831161075757829003601f168201915b50505050509080600301805461078990610ea8565b80601f01602080910402602001604051908101604052809291908181526020018280546107b590610ea8565b80156108025780601f106107d757610100808354040283529160200191610802565b820191906000526020600020905b8154815290600101906020018083116107e557829003601f168201915b50505050600483015460059093015491929160ff16905086565b60008181526001602052604090206004015460609060ff166108505760405162461bcd60e51b815260040161023590610e42565b600082815260036020526040812054908167ffffffffffffffff81111561087957610879610ac6565b6040519080825280602002602001820160405280156108a2578160200160208202803683370190505b50905060015b828111610905576000858152600260209081526040808320848452909152902060040154826108d860018461102c565b815181106108e8576108e861103f565b6020908102919091010152806108fd81610e8f565b9150506108a8565b509392505050565b60008281526001602052604090206004015460ff1661093e5760405162461bcd60e51b815260040161023590610e42565b600082815260026020908152604080832084845290915290206005015460ff166109aa5760405162461bcd60e51b815260206004820152601860248201527f43616e64696461746520646f6573206e6f7420657869737400000000000000006044820152606401610235565b600082815260046020908152604080832033845290915290205460ff1615610a045760405162461bcd60e51b815260206004820152600d60248201526c105b1c9958591e481d9bdd1959609a1b6044820152606401610235565b60408051606081018252600180825260208083018581528385018381526000888152600480855287822033835285528782209651875490151560ff1991821617885593519587019590955590516002958601805491151591909316179091558681529281528383208584529052918120909101805491610a8383610e8f565b90915550506040805182815233602082015283917f7fe1d4e6b34e228b5dc059fcdc037c71b216fb2417f47c171e505144a5e4f5fc910160405180910390a25050565b634e487b7160e01b600052604160045260246000fd5b600082601f830112610aed57600080fd5b813567ffffffffffffffff80821115610b0857610b08610ac6565b604051601f8301601f19908116603f01168101908282118183101715610b3057610b30610ac6565b81604052838152866020858801011115610b4957600080fd5b836020870160208301376000602085830101528094505050505092915050565b600080600080600060a08688031215610b8157600080fd5b85359450602086013567ffffffffffffffff80821115610ba057600080fd5b610bac89838a01610adc565b95506040880135915080821115610bc257600080fd5b610bce89838a01610adc565b94506060880135915080821115610be457600080fd5b610bf089838a01610adc565b93506080880135915080821115610c0657600080fd5b50610c1388828901610adc565b9150509295509295909350565b60008060408385031215610c3357600080fd5b8235915060208301356001600160a01b0381168114610c5157600080fd5b809150509250929050565b600060208284031215610c6e57600080fd5b5035919050565b6000815180845260005b81811015610c9b57602081850181015186830182015201610c7f565b506000602082860101526020601f19601f83011685010191505092915050565b60a081526000610cce60a0830188610c75565b8281036020840152610ce08188610c75565b604084019690965250506060810192909252151560809091015292915050565b60008060008060808587031215610d1657600080fd5b843567ffffffffffffffff80821115610d2e57600080fd5b610d3a88838901610adc565b95506020870135915080821115610d5057600080fd5b50610d5d87828801610adc565b949794965050505060408301359260600135919050565b60008060408385031215610d8757600080fd5b50508035926020909101359150565b60c081526000610da960c0830189610c75565b8281036020840152610dbb8189610c75565b90508281036040840152610dcf8188610c75565b90508281036060840152610de38187610c75565b6080840195909552505090151560a090910152949350505050565b6020808252825182820181905260009190848201906040850190845b81811015610e3657835183529284019291840191600101610e1a565b50909695505050505050565b60208082526017908201527f456c656374696f6e20646f6573206e6f74206578697374000000000000000000604082015260600190565b634e487b7160e01b600052601160045260246000fd5b600060018201610ea157610ea1610e79565b5060010190565b600181811c90821680610ebc57607f821691505b602082108103610edc57634e487b7160e01b600052602260045260246000fd5b50919050565b601f821115610f2c57600081815260208120601f850160051c81016020861015610f095750805b601f850160051c820191505b81811015610f2857828155600101610f15565b5050505b505050565b815167ffffffffffffffff811115610f4b57610f4b610ac6565b610f5f81610f598454610ea8565b84610ee2565b602080601f831160018114610f945760008415610f7c5750858301515b600019600386901b1c1916600185901b178555610f28565b600085815260208120601f198616915b82811015610fc357888601518255948401946001909101908401610fa4565b5085821015610fe15787850151600019600388901b60f8161c191681555b5050505050600190811b01905550565b82815260406020820152600061100a6040830184610c75565b949350505050565b6020815260006110256020830184610c75565b9392505050565b8181038181111561038c5761038c610e79565b634e487b7160e01b600052603260045260246000fdfea2646970667358221220840108c8569045811024282ac98859946809065166ffc1d108a8faf67ec0058964736f6c63430008140033",
  "linkReferences": {},
  "deployedLinkReferences": {}
}